:020000040800F2
:100000002032002021020008530C0008130C0008C5
:10001000510C00087B030008450D0008000000009B
:10002000000000000000000000000000590C000863
:100030007F03000800000000550C00085D0C00085C
:100040003B0200083B0200083B0200083B0200089C
:100050003B0200083B0200083B0200083B0200088C
:100060003B0200083B0200083B0200083B0200087C
:100070003B0200083B0200083B0200083B0200086C
:100080003B0200083B0200083B0200083B0200085C
:100090003B0200083B0200083B0200083B0200084C
:1000A0003B0200083B0200083B0200083B0200083C
:1000B0003B0200083B020008C10C00083B0200089C
:1000C0003B0200083B0200083B0200083B0200081C
:1000D0003B0200083B0200083B0200083B0200080C
:1000E0003B0200083B0200083B02000800F002F857
:1000F00000F03AF80AA090E8000C82448344AAF188
:100100000107DA4501D100F02FF8AFF2090EBAE885
:100110000F0013F0010F18BFFB1A43F0010318473B
:100120000019000020190000103A24BF78C878C1D7
:10013000FAD8520724BF30C830C144BF04680C60ED
:10014000704700000023002400250026103A28BF35
:1001500078C1FBD8520728BF30C148BF0B60704739
:100160001FB51FBD10B510BD00F0CEF81146FFF74A
:10017000F7FF00F0F8FD00F0ECF803B4FFF7F2FF32
:1001800003BC00F0F3F80000224B19680868B0E8DF
:10019000F00F80F30988BFF36F8F4FF0000080F3FA
:1001A00011884EF00D0E70470000000006480068F0
:1001B000006880F3088862B661B6BFF34F8FBFF363
:1001C0006F8F00DF00BF00BF08ED00E0EFF3098094
:1001D000BFF36F8F0F4B1A6820E9F00F106008B55E
:1001E0004FF0400080F31188BFF34F8FBFF36F8F44
:1001F00001F0C4F94FF0000080F31188BDE8084019
:1002000019680868B0E8F00F80F30988BFF36F8FB2
:10021000704700BF38000020EFF3058070470000F2
:100220000948804709480047FEE7FEE7FEE7FEE78A
:10023000FEE7FEE7FEE7FEE7FEE7FEE704480549C6
:10024000054A064B70470000BF0C0008ED0000088F
:10025000202C002020320020202E0020202E0020E4
:1002600002F0FF0343EA032242EA024200F002B82E
:100270004FF000020429C0F0128010F0030C00F0CF
:100280001B80CCF1040CBCF1020F18BF00F8012B4D
:10029000A8BF20F8022BA1EB0C0100F00DB85FEA1B
:1002A000C17C24BF00F8012B00F8012B48BF00F8E7
:1002B000012B70474FF0000200B513469446964656
:1002C000203922BFA0E80C50A0E80C50B1F1200169
:1002D000BFF4F7AF090728BFA0E80C5048BF0CC017
:1002E0005DF804EB890028BF40F8042B08BF704775
:1002F00048BF20F8022B11F0804F18BF00F8012BE7
:100300007047704770477047754600F02BF8AE464F
:1003100005006946534620F00700854618B020B511
:10032000FFF78CFFBDE820404FF000064FF00007BC
:100330004FF000084FF0000B21F00701AC46ACE88D
:10034000C009ACE8C009ACE8C009ACE8C0098D46FA
:10035000704710B50446AFF300802046BDE810405A
:10036000FFF70BBF00487047C02B00200149182041
:10037000ABBEFEE7260002007047FEE770477047FD
:100380000148806870470000000000200248816832
:10039000027811448160704700000020074810B5C2
:1003A000016841F010010160032000F0A1F80F2066
:1003B00000F006F800F050F8002010BD00200240C8
:1003C00030B505461F4887B0C16941F00401C161DD
:1003D000C06906A900F00400009001A800F030F9FF
:1003E0000498B0B100F04CF940001749174AB0FB2F
:1003F000F1F11748491E0260416040F2E7320021E6
:10040000C0E903218160816100F002FB040003D098
:1004100015E000F035F9E8E70D4800F027FB04008F
:100420000DD11E2000F036F8102D07D200222946EB
:100430001E2000F03DF80748056000E0012407B0E9
:10044000204630BD0010024040420F00000800402E
:1004500094000020040000200C4808B5816941F098
:1004600001018161816901F001010091C16941F0DF
:100470008051C161C06900F080500090044841681B
:1004800021F0E06141F00071416008BD00100240C0
:1004900000000140002809DB00F01F02012191400B
:1004A0004009800000F1E020C0F800117047000012
:1004B000F0B40E4B1B680C46C3F30223C3F10705CF
:1004C000042D00D90425191D072901D2002300E0BD
:1004D000DB1E012606FA05F1491E214099409E4087
:1004E000761E16403143F0BC00F02DBC0CED00E050
:1004F000064900F0070208684FF6FF03184040EA7B
:100500000220034A10430860704700000CED00E031
:100510000000FA052DE9F0470F46050061D0434E73
:10052000306800F00700B84209D2306820F00700B8
:1005300038433060306800F00700B84251D1286875
:100540003B4C810712D5400703D5606840F4E0605A
:1005500060602878000703D5606840F460506060F0
:100560006068A96820F0F000084360602878C00740
:1005700028D06868012810D02168022810D0890787
:1005800000292EDA616821F0030101436160FFF761
:10059000F7FE804641F288390DE021688903EFE7D4
:1005A0008901EDE7FFF7ECFEA0EB0801494502D910
:1005B0000320BDE8F0876068696800F00C00B0EBCC
:1005C000810FEFD1306800F00700B8420BD93068D6
:1005D00020F0070038433060306800F00700B84270
:1005E00001D00120E5E72878400705D56068E96873
:1005F00020F4E060084360602878000706D5606852
:10060000296920F4605040EAC100606000F048F8B9
:100610006168084AC1F30311515CC840064908608B
:1006200006480068FFF7CCFE0020C2E70020024029
:1006300000100240061A00080C00002004000020F0
:100640000F2202600C4A536803F0030343605368AF
:1006500003F0F0038360536803F4E063C3605268FF
:100660004FF4E06303EAD20202610448006800F03C
:1006700007000860704700000010024000200240A0
:100680000448054900684968044AC1F30221515CE5
:10069000C84070470C00002000100240161A0008E5
:1006A0000E4A51680E4801F00C03042B11D0082BA0
:1006B0000FD10C48C1F38343C903C05C0AD551680C
:1006C000084AC1F34041921E515C054A5043B0FBB9
:1006D000F1F07047044948437047000000100240A1
:1006E00000127A00F619000800093D002DE9F84FC4
:1006F000040070D02078C04DC00749D06868C0F3AE
:100700008100012807D06868C0F38100022809D160
:100710006868C00306D52868800339D5606800285A
:10072000E7D035E06068B0F5803F0BD010B1B0F590
:10073000A02F11D0286820F480302860286820F489
:10074000802002E0286840F480302860606890B122
:10075000FFF716FE06460AE0286840F4802028606D
:10076000F0E700BFFFF70CFE801B642873D82868F1
:100770008003F7D50CE0FFF703FE064605E000BF57
:10078000FFF7FEFD801B6428F0D828688003F7D4AB
:1007900020789A4E80074FF001094FF0000839D5B4
:1007A000686810F00C0F07D06868C0F38100022859
:1007B00009D16868C00306D42868800714D5206969
:1007C000012808D110E02069B0B1C6F80090FFF709
:1007D000D7FD074605E00AE1FFF7D2FDC01B02285E
:1007E000C4D828688007F7D52868616920F0F80028
:1007F00040EAC10028600DE0C6F80080FFF7C0FDA8
:10080000074604E0FFF7BCFDC01B022823D8286878
:100810008007F7D4207800072CD57948A169D9B191
:10082000C0F80090FFF7ACFD074604E0FFF7A8FD15
:10083000C01B02280FD8686A8007F7D571484FF4AB
:10084000FA510068B0FBF1F0009000BF0098411E23
:100850000091FAD20EE080E0C0F80080FFF790FD32
:10086000074604E0FFF78CFDC01B022875D8686AB4
:100870008007F7D42078400760D5E8690027C000DA
:1008800008D4E86940F08050E861E869012700F089
:10089000805000905C480168C90513D40168834604
:1008A00041F480710160FFF76BFD824606E000BFF6
:1008B000FFF766FDA0EB0A0064284ED8DBF80000C5
:1008C000C005F5D5E06801280AD008B1052813D085
:1008D000286A20F001002862286A20F0040002E063
:1008E000286A40F001002862E06841F2883B98B134
:1008F000FFF746FD82460BE0286A40F004002862BC
:10090000EEE700BFFFF73CFDA0EB0A0159455AD8BE
:10091000286A8007F6D50CE0FFF732FD824605E035
:10092000FFF72EFDA0EB0A0159454CD8286A800735
:10093000F6D41FB1E86920F08050E861E06988B31F
:100940006968C1F38101022944D00228C6F8608099
:1009500004D0FFF715FD044638E034E0FFF710FD42
:10096000074604E0FFF70CFDC01B02282BD82868BF
:100970008001F7D4206AB0F5803F05D16868A1688E
:1009800020F4003008436860D4E90801084369682E
:1009900021F4741108436860C6F86090FFF7F0FC1A
:1009A000044606E025E000BFFFF7EAFC001B022832
:1009B00009D828688001F7D51BE000BFFFF7E0FCED
:1009C000001B022802D90320BDE8F88F28688001A7
:1009D000F4D40EE00128F7D06868226A00F4803170
:1009E000914204D1616A00F47010884201D0012064
:1009F000EAE70020E8E70000001002400000424261
:100A0000800442420C000020007000407047704794
:100A100010B5040003D094F83D0010B107E00120A8
:100A200010BD002084F83C00204600F01EF8022093
:100A300084F83D00211D206800F048F9012084F869
:100A4000460084F83E0084F83F0084F8400084F8B3
:100A5000410084F8420084F8430084F8440084F89C
:100A6000450084F83D00002010BD704790F83D100F
:100A7000012901D001207047022180F83D10016852
:100A8000CA6842F00102CA6000680B49884208D077
:100A9000B0F1804F05D00949884202D00849884208
:100AA00004D1816801F00701062903D0016841F0F3
:100AB0000101016000207047002C0140000400404B
:100AC0000008004070472DE9F04104460068C66800
:100AD00005694FF00007A90713D5B10711D5F91E15
:100AE000016101202077206880698007204602D0BC
:100AF000FFF7E8FF04E000F07EF8204600F07CF805
:100B00002777680716D5700714D521686FF00400A1
:100B10000861022020772068806910F4407F204619
:100B200002D0FFF7CFFF04E000F065F8204600F0A8
:100B300063F82777280715D5300713D521686FF09C
:100B400008000861042020772068C06980072046DB
:100B500002D0FFF7B7FF04E000F04DF8204600F0A8
:100B60004BF82777E80616D5F00614D521686FF004
:100B700010000861082020772068C06910F4407FC9
:100B8000204602D0FFF79EFF04E000F034F8204634
:100B900000F032F82777E80708D0F00706D0216880
:100BA0006FF001000861204600F028F8280608D5FB
:100BB000300606D521686FF0800008612046FFF7F7
:100BC00025FF680608D5700606D521686FF040003D
:100BD0000861204600F01CF8A8060AD5B00608D522
:100BE00021686FF0200008612046BDE8F041FFF762
:100BF0000EBFBDE8F08170477047000000680349F0
:100C0000884201D1FFF7C2BB7047000000080040D6
:100C10007047FEE70D4808B5816941F01001816118
:100C2000816901F010010091816941F02001816129
:100C3000816901F020010091816941F00401816125
:100C4000806900F00400009008BD00000010024020
:100C5000FEE7FEE7FFF7BABAFFF796BA00F042BD2B
:100C600030B58FB028216846FFF724FB14210AA86D
:100C7000FFF720FB01210804CDE9001000240294B5
:100C800002250491CDE907504FF4E0100990684621
:100C9000FFF72CFD08B172B6FEE70F20CDE90A057B
:100CA0004FF48060CDE90C4002210AA80E94FFF7B2
:100CB00031FC002801D072B6FEE70FB030BD70479E
:100CC0000148FFF700BF000094000020F0B5026863
:100CD000194B1A4C1A4D4FF08047984205D0B84234
:100CE00003D0A04201D0A84203D122F070064A6886
:100CF0003243984205D0B84203D0A04201D0A84266
:100D000003D122F44074CA6822434C6922F0800265
:100D1000224302608A68C2620A688262984201D1F4
:100D200009690163012141610169C90703D00169B2
:100D300021F001010161F0BD002C014000040040E0
:100D400000080040FEE70907090E002804DB00F157
:100D5000E02080F80014704700F00F0000F1E02060
:100D600080F8141D7047FFF719FBFFF779FFFFF7B5
:100D700051FF00F03DFAFEE72DE9F041054600F095
:100D8000CBFA354CA068401CA0602068334F10B1EE
:100D9000606930B32BE02560A068012827D10026C8
:100DA00006EB860007EB800000F09CFA761C202EF4
:100DB000F6D32B4800F096FA2948143000F092FA46
:100DC0002748283000F08EFA25483C3000F08AFA97
:100DD0002348503000F086FA2148E0631430206444
:100DE00005E02068E96AC06A884200D82560606A28
:100DF000401C6062A864E96A0120226988401043AF
:100E0000206101EB810007EB80004068A8608168E9
:100E1000E9608268291D51608160E86A00EB80000A
:100E200007EB8001696157F82010491C47F8201032
:100E300000F092FA606900280CD02068E96AC06A64
:100E4000884207D207494FF080500860BFF34F8FA8
:100E5000BFF36F8FBDE8F08138000020DC28002050
:100E60005C2B002004ED00E070B50C4C0C4E11E042
:100E700000F052FAF068C568281D00F019FAA06861
:100E8000401EA0606068401E606000F065FA284661
:100E900000F008F860680028EAD170BD3800002032
:100EA000982B002010B50446006B00F069FA20462C
:100EB000BDE8104000F064BA0E484FF420514207DC
:100EC00006D0C01D0B4920F00700411AC1F5205182
:100ED000094A00230144C2E900030839143A21F009
:100EE000070111604B600B600B1AC0E9001393609F
:100EF00053607047DC00002024000020074C4FF0B6
:100F00008056074DFFF7B0FF20680128FAD92E6000
:100F1000BFF34F8FBFF36F8FF4E70000DC28002092
:100F200004ED00E02DE9F0470D46DDE909841746A0
:100F3000824691009946089EA522206BFFF790F902
:100F40006FF00301206B01EB8701084420F00707D5
:100F5000780707D0402080F31188BFF34F8FBFF38D
:100F60006F8FFEE765B100202218295C82F83410EB
:100F7000295C11B1401C1428F6D3002084F84700E6
:100F8000202E07D3402080F31188BFF34F8FBFF38B
:100F90006F8FFEE7E662201D266500F0AEF904F1D2
:100FA000180000F0AAF92461C6F120006462A06173
:100FB0004A465146384600F009F92060B8F1000F62
:100FC00001D0C8F80040BDE8F087000030B51A49EC
:100FD00000E011460A688242FBD3174B99420DD0BC
:100FE000164B994202D3164B994207D9402080F301
:100FF0001188BFF34F8FBFF36F8FFEE74B685C180C
:10100000844203D1406818444860084643681C186D
:10101000944209D1084C143C2468A24209D0526879
:101020001A4442600A6812680260814200D0086077
:1010300030BD0460F9E7000024000020DC0000203F
:10104000DB2800200548C16B096821B1C16BC96864
:101050000968816270474FF0FF31FAE738000020DD
:1010600008484068401C4FF0400080F3118804D0CD
:10107000BFF34F8FBFF36F8FFEE7BFF34F8FBFF309
:101080006F8FFEE72C0000202DE9F04104004FF0A7
:1010900000060FD014F1090F0BD80834600709D0EF
:1010A00004F00700C0F10800C1438C4201D8044499
:1010B00000E0002400F05AFA414D286808B9FFF713
:1010C000FBFE002C6DDD6F68BC426AD83C483D4A8F
:1010D000143001460968914202D33B4B994215D91D
:1010E000402080F31188BFF34F8FBFF36F8FFEE76F
:1010F00008466146944501D3994207D9402080F3C0
:101100001188BFF34F8FBFF36F8FFEE7D1F804C094
:10111000A44504D2D1F800C0BCF1000FE8D1D5F845
:1011200000C061453DD006680836964201D39E4214
:1011300007D9402080F31188BFF34F8FBFF36F8F23
:10114000FEE70A6802604A68A24207D2402080F3A4
:101150001188BFF34F8FBFF36F8FFEE7131B102B68
:1011600010D90A195FEA427C07D0402080F3118829
:10117000BFF34F8FBFF36F8FFEE753604C60036880
:10118000136002604A68B81A6860AB68984200D27F
:10119000A86042F00040486000200860E868401CF9
:1011A000E86000F081FB700707D0402080F31188D1
:1011B000BFF34F8FBFF36F8FFEE73046BDE8F0817E
:1011C00010000020DC000020DB28002010B5031FE9
:1011D0004FF080741C601B1F21F001011960191F62
:1011E000024B0B60143940380A6010BD61100008D2
:1011F0001CB508490120CDE900010023802206A189
:10120000084800F085FA012800D0FEE7BDE81C4040
:1012100000F06AB9800000207461736B5F737461C1
:101220007274000031120008FEE7FEE7704700000C
:101230001CB500F071F813490220CDE9000100232C
:10124000802211A1124800F063FA0E490420091D02
:10125000CDE90001002380220EA1104800F058FAC9
:10126000084903200831CDE90001002380220CA1A8
:101270000E4800F04DFA002000F0D8F8BDE81C4000
:1012800000F06AB8840000207461736B5F31000065
:10129000291200087461736B5F3200002B12000882
:1012A0007461736B5F6C6F67000000002D120008A3
:1012B000D0E9013201699A60D0E901235A604A6895
:1012C000824201D182684A60002202610868401EA1
:1012D00008607047402080F31188BFF34F8FBFF341
:1012E0006F8FFEE700F108014FF0FF32C0E90112F5
:1012F000C1600161002101607047002101617047F8
:1013000042684A6093688B60936859609160086195
:101310000168491C01607047402080F31188BFF3C9
:101320004F8FBFF36F8F0A494868401C48600128FF
:101330000CD10848006810F0FF0F07D0402080F360
:101340001188BFF34F8FBFF36F8FFEE77047000028
:101350002C00002004ED00E00849486828B1401E38
:10136000486001D180F311887047402080F31188D4
:10137000BFF34F8FBFF36F8FFEE700002C000020FC
:1013800070B500283FD008381F490446884202D370
:101390001E498C4207D9402080F31188BFF34F8F3C
:1013A000BFF36F8FFEE76168002907DB402080F301
:1013B0001188BFF34F8FBFF36F8FFEE722683AB1FA
:1013C000402080F31188BFF34F8FBFF36F8FFEE78C
:1013D00021F000416160082904D304F108000839B4
:1013E000FEF746FF00F0C2F8094D606869680844DE
:1013F00068602046FFF7EAFD2869401C2861BDE8C7
:10140000704000F051BA70BDDC000020DB280020E5
:10141000100000204FF0E0200021016181610249AD
:1014200041610721016170473F19010070B5054610
:10143000FFF772FF284C05B92568281DFFF738FF14
:1014400058B9E86A254A00EB800152F8211021B909
:1014500001218140206988432061A86A18B105F103
:101460001800FFF725FF606A401C60622068854213
:1014700001D1012000E00020616951B148B1291D6E
:101480001748FFF73DFF6068401C6060FFF764FF8E
:1014900009E0A068401EA060FFF7D4FDFFF75CFFE5
:1014A0002846FFF7FFFC6069002814D020688542B9
:1014B00011D1206B38B1402080F31188BFF34F8FDA
:1014C000BFF36F8FFEE707494FF080500860BFF30E
:1014D0004F8FBFF36F8F70BD38000020DC280020D5
:1014E000982B002004ED00E030B587B0002002AA60
:1014F0001AA1095C115411B1401C1428F8DB1A49D7
:101500000025CDE9005117482B46802202A900F0A2
:10151000FFF8154C443CA8B1012802D0401C14D05F
:1015200010E0402080F31188BFF34F8FBFF36F8F1F
:101530004FF0FF30A06201206061E560FEF71EFF02
:1015400000F076F8E06A07B030BD402080F31188E3
:10155000BFF34F8FBFF36F8FFEE7000049444C4548
:1015600000000000FD0E00087C0000200248016B16
:10157000491C0163704700003800002070B5294CF9
:10158000216B04F11C0011B10121016070BD00212B
:101590000160254801682348383001600168031F55
:1015A0001A68914205D921680568AA1A8D6D2A44E6
:1015B0008A650068186020684FF0A531006B0268EA
:1015C0008A4208D142688A4205D182688A4202D1A1
:1015D000C068884204D0216820683431FFF77AFE61
:1015E00020691249B0FA80F0C0F11F0000EB8000C2
:1015F00051F8202072B101EB800000F1080241682F
:1016000049684160914201D1C1684160C868206069
:10161000206870BD402080F31188BFF34F8FBFF367
:101620006F8FFEE73800002090000020DC280020AB
:101630003EB529480025019501788DF80810FF2155
:10164000017001788DF800109DF80010234C11F006
:10165000400121700CD09DF80010C943490616D5F1
:10166000402080F31188BFF34F8FBFF36F8FFEE7E9
:10167000402080F31188BFF34F8FBFF36F8FFEE7D9
:10168000491C01919DF8001049008DF800109DF84B
:10169000001009060199F3D408291AD0C1F10701F5
:1016A000A160217A090201F4E061A1609DF80810AF
:1016B00001700B48016841F47F010160016841F04D
:1016C0007F410160FFF7A6FE6560FEF76FFD002019
:1016D0003EBDA560E5E7000000E400E02C0000202E
:1016E00020ED00E010B5402080F31188BFF34F8F4C
:1016F000BFF36F8F00F03AF818B104494FF08050F3
:101700000860002080F3118810BD000004ED00E0A7
:101710002DE9FF5F8346DDE90E878A461646994626
:101720009000FFF7B1FC05001DD06420FFF7ACFC72
:10173000040015D06421FEF7BDFD25630021CDE92D
:101740000241CDE900874B46324651465846FFF7E5
:10175000E9FB2046FFF710FB012004B0BDE8F09F35
:101760002846FFF70DFE4FF0FF30F6E72DE9F04178
:101770004B4C0026206B28B1A069401CA06130466C
:10178000BDE8F081E5686D1CE56013D1E06B006891
:1017900038B1402080F31188BFF34F8FBFF36F8FB4
:1017A000FEE7E06B216CE1632064206A401C20624C
:1017B000FFF748FCA16A3B488D420FD34FF0000E63
:1017C000E16B096839B1E16BC968C9684A6895423B
:1017D00014D2A26202E04FF0FF31A1622168C96A0F
:1017E00001EB810150F82100012800D901262C4885
:1017F0001C3000680028C2D00126C0E7D1E902727F
:101800004B69BA60D1E902277A605F680A1D974286
:1018100001D1CF685F60C1F814E01F687F1E1F60B0
:10182000D1F828C0BCF1000F15D0D1E907379F606F
:10183000D1E907377B60DCF8047001F118039F429F
:1018400002D10B6ACCF80430C1F828E0DCF8003093
:101850005B1ECCF80030CB6A0127D4F810C09F4043
:1018600047EA0C07276103EB830300EB83035B6804
:101870008B609F68CF609F687A609A60CA6A02EB4B
:10188000820200EB82034B6150F822305B1C40F86F
:101890002230C96A2268D26A914291D901268FE723
:1018A00038000020DC2800202DE9F0470024A04665
:1018B000FFF732FD4B4D0026286B28B1286B401EE8
:1018C0002863286B40B188E0402080F31188BFF383
:1018D0004F8FBFF36F8FFEE7A868424F424A4FF029
:1018E000000A4FF001091C37F0BB76E0D068C468ED
:1018F000D4E90731A06A9960D4E9071359604368B5
:1019000004F118018B4201D1216A4160C4F828A07A
:1019100001685346491E0160D4E902C06169CCF8F0
:101920000800D4E9020CCCF80400D1F804C0201D52
:10193000844503D1D4F80CC0C1F804C063610B68BE
:101940005B1E0B60E16AD5F810C009FA01F343EAA7
:101950000C032B61254B01EB810103EB81014968ED
:10196000A160D1F808C000E018E0C4F80CC0D1F8BC
:1019700008C0CCF804008860E06A00EB800003EB4C
:101980008001616153F82010491C43F82010E06A7F
:101990002968C96A884201D947F82690106800284A
:1019A000A4D10CB1FFF74EFBAC6944B1FFF7DEFEEA
:1019B00008B147F82690641EF8D1C5F818A057F86A
:1019C000260050B128684FF0010809494FF08050B7
:1019D0000860BFF34F8FBFF36F8FFFF7BDFC40462A
:1019E000BDE8F08738000020842B0020DC28002090
:1019F00004ED00E0010202030405060708090A0BD2
:101A00000C0D0E0F1010000000000000000001027D
:101A10000304060708090000000001020304000097
:101A2000401A00080000002094000000280100086F
:101A3000D41A0008940000208C31000044010008F2
:101A400001000000100000000000000000127A00F9
:101A50000000000000000000000000000000000086
:101A60000000000000000000000000000000000076
:101A7000AAAAAAAA000000000000000000000000BE
:101A80000000000000000000000000000000000056
:101A90000000000000000000000000000000000046
:101AA000000000001F000000000000000000000017
:101AB0000000000000000000000000000000000026
:101AC0000000000000000000000000000000000016
:041AD0000000000012
:04000005080000ED02
:00000001FF
