:020000040800F2
:100000004032002099010008D30D00088B0D000834
:10001000D10D00089F040008D90E00080000000060
:10002000000000000000000000000000D90D0008E2
:10003000A304000800000000D50D0008DD0D000835
:10004000B3010008B3010008B3010008B3010008C0
:10005000B3010008B3010008B3010008B3010008B0
:10006000B3010008B3010008B3010008B3010008A0
:10007000B3010008B3010008B3010008B301000890
:10008000B3010008B3010008B3010008B301000880
:10009000B3010008B3010008B3010008B301000870
:1000A000B3010008B3010008B3010008B301000860
:1000B000B3010008B3010008490E0008B3010008AD
:1000C000B3010008B3010008B3010008B301000840
:1000D000B3010008B3010008B3010008B301000830
:1000E000B3010008B3010008B301000800F002F8F2
:1000F00000F042F80AA090E8000C82448344AAF180
:100100000107DA4501D100F037F8AFF2090EBAE87D
:100110000F0013F0010F18BFFB1A43F0010318473B
:10012000441B0000641B0000103A24BF78C878C14B
:10013000FAD8520724BF30C830C144BF04680C60ED
:10014000704700000023002400250026103A28BF35
:1001500078C1FBD8520728BF30C148BF0B60704739
:10016000752900F06380632900F0538100207047F7
:100170001FB51FBD10B510BD00F057F91146FFF7B0
:10018000F7FF00F0AAFE00F075F903B4FFF7F2FFE5
:1001900003BC00F07DF9000009488047094800478A
:1001A000FEE7FEE7FEE7FEE7FEE7FEE7FEE7FEE727
:1001B000FEE7FEE704480549054A064B7047000084
:1001C000470E0008ED000008402C002040320020BF
:1001D000402E0020402E002070B50C460546012A16
:1001E00005D02878800600D5EA69002302E00123C3
:1001F00005E05B1C934202D2E05C0028F9D1A869BB
:10020000E618C01AA861286A184428622846AFF385
:10021000008004E0D5E9012114F8010B9047B442B5
:10022000F8D32846AFF3008070BD00002DE9F041FF
:100230000646002410687529314616A510D0AFF384
:100240000080002802DA404213A507E031688A07DF
:1002500001D512A502E0490704D511A5012401E04A
:10026000AFF3008000210A2206F1240709E0B0FB69
:10027000F2FCB0FBF2F302FB1C003030785418465D
:10028000491C0028F3D123462A463046BDE8F041F8
:1002900000F05CB8000000002D0000002B00000002
:1002A0002000000002F0FF0343EA032242EA024278
:1002B00000F024B84FF000020429C0F0128010F0C2
:1002C000030C00F01B80CCF1040CBCF1020F18BF32
:1002D00000F8012BA8BF20F8022BA1EB0C0100F0C5
:1002E0000DB85FEAC17C24BF00F8012B00F8012B98
:1002F00048BF00F8012B70474FF0000200B51346CD
:1003000094469646203922BFA0E80C50A0E80C5035
:10031000B1F12001BFF4F7AF090728BFA0E80C50E6
:1003200048BF0CC05DF804EB890028BF40F8042BDF
:1003300008BF704748BF20F8022B11F0804F18BF4C
:1003400000F8012B70477047704770472DE9F04760
:100350000D4699469246044600F124080168880635
:1003600004D5E06921F01001216000E00120A842DD
:1003700001DD471B00E00027A1697A1902EB0900A3
:10038000081AA0612078C00602D42046AFF300808E
:10039000002608E0D4E901211AF806009047206AF7
:1003A000401C761C20624E45F4DB2078C0060AD53E
:1003B0002046AFF3008006E0D4E9012130209047C9
:1003C000206A401C2062381EA7F10107F4DC07E018
:1003D000D4E9012118F805009047206A401C2062EA
:1003E000281EA5F10105F3DC2046AFF3008020783C
:1003F000000602D50220BDE8F0870120FBE710B51A
:10040000436913B1AFF3008001E0FFF7E5FE01207F
:1004100010BD127800F124010A7000224A700122F6
:10042000EDE711684FF0FF32E9E7754600F02CF870
:10043000AE4605006946534620F00700854618B0D1
:1004400020B5FFF7B7FEBDE820404FF000064FF0A3
:1004500000074FF000084FF0000BAC46ACE8C009B5
:10046000ACE8C009ACE8C009ACE8C00921F007015C
:100470008D46704710B50446AFF300802046BDE8B6
:100480001040FFF782BE00000048704720000020A7
:1004900001491820ABBEFEE7260002007047FEE7C8
:1004A0007047704704488068704700BF0248017871
:1004B00082681144816070470000002080B5BD480B
:1004C000016841F010010160032000F0ADF80F2039
:1004D00000F004F800F04EF8002080BDB0B586B002
:1004E00004462048016841F0040101606946006843
:1004F00000F004000190019801A800F03FF9049D6C
:1005000000F05AF91849194A002D0A6040F2E73202
:10051000CA6018BF0125164AA840B0FBF2F00138A6
:1005200048600020086188608861084600F040FB50
:1005300005469DB90C4800F069FB054675B91E20BB
:1005400000F038F80F2C08D81E2021460022002584
:1005500000F03EF88848046000E00125284606B017
:10056000B0BD00BF1C1002406C010020000800401C
:1005700040420F0082B00D480222016841F00101A3
:100580000160016801F0010101910199416841F0A8
:1005900080514160406800F080500090009804480D
:1005A000016862F31A61016002B0704718100240DE
:1005B00004000140002808DB00F01F01012240096F
:1005C00002FA01F1014A42F82010704700E100E010
:1005D000B0B5144C1A4D00F00F03B0F1FF3FA3F17A
:1005E00004032B4403F10C03C8BF03192868C0F3AC
:1005F0000220051DC41E80F00700072D4FF00105E5
:1006000038BF0024042828BF042005FA00F0013870
:10061000084005FA04F10F31A040114008430001E1
:100620001870B0BD00E400E005494FF6FF030A680A
:100630001A4060F30A22034810430860704700BF65
:100640000CED00E00000FA052DE9F0410446884673
:10065000002C00F08880464F4FF48050395801F04C
:10066000070141450AD2395821F0070141EA080142
:100670003950385800F00700404574D1206810F018
:10068000020F11D0410742BF796841F4E0617960FF
:10069000010742BF796841F4605179607968A268C6
:1006A00021F0F00111437960C00727D0606801286C
:1006B00004D1396811F4003F08D154E039680228A8
:1006C00002D1890102D44EE089074CD5796821F026
:1006D000030108437860FFF7E5FE064641F28835DE
:1006E0007868616800F00C00B0EB810F06D0FFF76E
:1006F000D9FE801BA842F3D9032035E04FF4805087
:10070000395801F0070141450AD9395821F007014C
:1007100041EA08013950385800F00700404522D11D
:10072000206810F0040F05D07968E26821F4E061D8
:1007300011437960000706D57868216920F460507C
:1007400040EAC100786000F045F87968094AC1F3D1
:100750000311515CC8401D49086007480068FFF755
:10076000BDFE002000E00120C0B2BDE8F08100BF66
:1007700000100240481C0008040000200F22026004
:10078000224A136803F003034360136803F0F00385
:100790008360136803F4E063C3604FF4E06312689E
:1007A00003EAD20202610348006800F00700086013
:1007B000704700BF00200240FA48054A0068F74928
:1007C0000968C1F30221515CC84070470C00002049
:1007D000581C00080D490A680D4802F00C03082B4C
:1007E00018BF7047C2F3834C0AA312F4803F13F87A
:1007F0000C3002D10C4858437047096809A258438D
:10080000C1F34041515CB0FBF1F07047041002406D
:1008100000127A0002030405060708090A0B0C0DF2
:100820000E0F10100102000000093D002DE9FE4FDF
:100830008246BAF1000F00F065819AF80000D64EAA
:10084000D64FC00750D0386800F00C00042819D0EB
:10085000386800F00C00082803D1386810F4803F95
:1008600010D1DAF80400A8B1B0F5803F06D03168A5
:10087000B0F5A02F24D141F480203060306840F4DE
:10088000803023E0306810F4003F2DD0DAF8040007
:1008900050BB37E1306820F480303060306820F49D
:1008A00080203060FFF7FEFD0546306810F4003F01
:1008B0001AD0FFF7F7FD411B03206429F5D922E187
:1008C00021F480303060306820F480203060FFF701
:1008D000E9FD0546306810F4003F05D1FFF7E2FD61
:1008E000401B6428F6D9EBE09AF800008007AC487A
:1008F000834632D5386810F00C0F1DD0386800F0F0
:100900000C00082804BF386810F4803F14D0DAF8CF
:100910001000002800F09580012059460860FFF77C
:10092000C1FD0546306810F0020F0ED1FFF7BAFD89
:10093000401B0228F6D9C3E0306810F0020F1CBF3C
:10094000DAF81000012840F0DD803068DAF8141081
:1009500020F0F80040EAC10030609AF8000000077B
:1009600031D5DAF8180080B101205946C1F8800469
:10097000FFF798FD0546386A10F0020F16D1FFF711
:1009800091FD401B0228F6D99AE000205946C1F893
:100990008004FFF787FD0546386A10F0020F12D079
:1009A000FFF780FD401B0228F6D989E07D484FF40F
:1009B000FA510068B0FBF1F0029000BF0298411EAE
:1009C00000280291F9D19AF80000400740F1818097
:1009D000B86910F0805F0BD1B8694FF0010840F0A2
:1009E0008050B861B86900F080500190019801E032
:1009F0004FF000086C48305810F4807F12D16A48DC
:100A0000315841F480713150FFF74CFD054666487E
:100A1000305810F4807F05D1FFF744FD401B642857
:100A2000F5D94DE0DAF80C00E8B1012805D0F969F4
:100A3000052830D141F00400F861F86940F0010068
:100A40002FE0002059460860FFF72CFD054630686E
:100A500010F0020F3FF481AFFFF724FD411B03208C
:100A60000229F4D94FE0F86920F00100F861F86933
:100A700020F00400F861FFF715FD054641F28839C2
:100A8000F86910F0020F1DD0FFF70CFD411B032089
:100A90004945F5D937E021F00100F861F86920F007
:100AA0000400F861FFF7FEFC054641F28834F8695E
:100AB00010F0020F06D1FFF7F5FC401BA042F6D95B
:100AC000032020E0B8F1010F02BFB86920F0805088
:100AD000B861DAF81C405946002C5AD0386800F04A
:100AE0000C00082813D1012C0CD03868DAF820103B
:100AF00000F480328A4205D1DAF8241000F4701034
:100B0000884246D00120C0B203B0BDE8F08F00207B
:100B10000866FFF7C7FC0546022C0AD1306810F0C2
:100B2000007F11D0FFF7BEFC411B03200229F5D93D
:100B3000E9E7306810F0007F2BD0FFF7B3FC411BD2
:100B400003200229F5D9DEE7DAF82000B0F5803F6E
:100B500006D13968DAF8082021F4003111433960F0
:100B6000396821F474110843DAF824100843386016
:100B70000120CBF86000FFF795FC0446306810F0C8
:100B8000007F06D1FFF78EFC011B03200229F5D957
:100B9000B9E70020B7E700BF001002400410024090
:100BA000000042420C0000200060FEFF70477047CA
:100BB00010B5044634B394F83D0028B9002084F8F9
:100BC0003C00204600F020F80220211D84F83D0062
:100BD000206800F03FF9012084F8460084F83E00C8
:100BE00084F83F0084F8400084F8410084F8420013
:100BF00084F8430084F8440084F8450084F83D00FC
:100C0000002010BD012010BD7047000090F83D107D
:100C100001291CBF01207047022180F83D100068A7
:100C2000C168B0F1804F41F00101C16008D0A8490E
:100C300088421CBFA549884202D0A649884204D1F7
:100C4000816801F00701062903D0016841F0010124
:100C500001600020704700BF7047B0B504462068AF
:100C6000C168026901EA0205A90714D56FF0020103
:100C7000016101212177806910F0030F03D0204624
:100C8000FFF7EAFF05E0204600F074F8204600F088
:100C900072F800202077680715D520686FF00401EE
:100CA000016102212177806910F4407F03D0204642
:100CB000FFF7D2FF05E0204600F05CF8204600F088
:100CC0005AF800202077280715D520686FF0080112
:100CD000016104212177C06910F0030F03D0204681
:100CE000FFF7BAFF05E0204600F044F8204600F088
:100CF00042F800202077E80615D520686FF0100133
:100D0000016108212177C06910F4407F03D020469B
:100D1000FFF7A2FF05E0204600F02CF8204600F087
:100D20002AF800202077E80706D020686FF001013C
:100D30000161204600F020F8280606D520686FF0F3
:100D4000800101612046FFF731FF680606D5206863
:100D50006FF040010161204600F016F8A80658BF68
:100D6000B0BD20686FF0200101612046BDE8B040B1
:100D7000FFF71DBF7047704700685649884208BF9B
:100D8000FFF794BB704700BF7047FEE783B00F4882
:100D9000016841F010010160016801F01001029149
:100DA0000299016841F020010160016801F0200111
:100DB00001910199016841F004010160006800F0AF
:100DC00004000090009803B0704700BF1810024064
:100DD000FEE7FEE700F054BC00F022BB00F0F8BCD8
:100DE000B0B590B0002401A81421CDE90B44CDE9A1
:100DF0000944FFF781FA01204FF480310225069063
:100E0000CDE907140A904FF4E010CDE90D510F9091
:100E100006A8FFF70BFD18B1EFF3108072B6FEE7DE
:100E20000F200221CDE901054FF480600394CDE944
:100E3000040401A8FFF708FC18B1EFF3108072B6A4
:100E4000FEE710B0B0BD70470148FFF706BF00BF16
:100E50006C01002010B503681C4AB0F1804F08D027
:100E60001B4CA0421CBF194CA04202D0194CA042FE
:100E700003D14C6823F070032343B0F1804F08D0B6
:100E8000134CA0421CBF114CA04202D0114CA042F6
:100E900003D1CC6823F4407323434C6923F08003CF
:100EA000904243EA040303608B68C3620B68836269
:100EB00004BF0969116301214161016911F0010F4A
:100EC0001EBF016921F00101016110BD002C01402C
:100ED0000004004000080040FEE780B5FFF7EEFA8E
:100EE000FFF77EFFFFF752FF00F04EF9FEE700002C
:100EF000B0B5284D11E000F0DBF9E86CC468201DA6
:100F000000F0A2F9286901382861E8680138E86032
:100F100000F0EEF9204600F005F8E8680028EAD174
:100F2000B0BD00BF10B50446206B00F0F7F92046B5
:100F3000BDE8104000F0F2B9B0B5074C4FF0805555
:100F4000FFF7D6FF20680228FAD3E8480560BFF310
:100F50004F8FBFF36F8FF3E7B8010020064800689A
:100F6000006880F3088862B661B6BFF34F8FBFF3A5
:100F70006F8F00DF00BF00BF08ED00E00548C169CA
:100F8000096819B1C169C968096801E04FF0FF310A
:100F900081627047B000002081B000200090DE48E0
:100FA00000684FF0400181F31188BFF36F8FBFF3EA
:100FB0004F8F013000D0FEE700980028FCD001B030
:100FC000704700BFF8B500F10805092D06D315F0EC
:100FD000070104D0A1F10902954276D9002500F05D
:100FE000E9FADFF82CC4DCF8000010B1DCF80420CA
:100FF00021E05B480027C21D10F00701034622F0E4
:10100000070218BF1346101A4FF420520029CCE9EA
:10101000053718BFC0F520529818083820F007008F
:10102000C21ACCF80000C0E900775A60DCF8000072
:101030001860CCE901220026012DC0F28180954282
:101040007ED8DCF81470F14CA7421AD342F2FF703C
:101050002618B74215D80CF114037868A84219D2A3
:101060003968B9B1A14203D33B46B1420F46F4D926
:101070004FF0400080F31188BFF36F8FBFF34F8FA5
:10108000FEE74FF0400080F31188BFF36F8FBFF38E
:101090004F8FFEE7DCF800108F4219D0196801F17C
:1010A0000806A64216D342F2FF7121448E4211D89F
:1010B0003C68A8421C6016D24FF0400080F31188B3
:1010C000BFF36F8FBFF34F8FFEE71030451A86E7EF
:1010D000002635E04FF0400080F31188BFF36F8F9A
:1010E000BFF34F8FFEE7A0EB050EBEF1110F14D337
:1010F000781910F0070F08D04FF0400080F31188E6
:10110000BFF36F8FBFF34F8FFEE7C0F804E07D6041
:101110007C511860DCF804207868111A40F0004017
:10112000CCF80410DCF80820914238BFCCF8081045
:101130000021C7E90010DCF80C000130CCF80C00ED
:1011400000F0F0FC700702BF304601B0F0BD4FF078
:10115000400080F31188BFF36F8FBFF34F8FFEE71E
:101160003C0400204FF0807321F0010140F8043C62
:1011700040F8081C034940F80C1C40F8202C40386B
:10118000704700BF990F0008E0B508480121802290
:101190000023CDE90010064806A100F02FFB01282E
:1011A00004BFBDE88C4000F0B7B9FEE7380400206A
:1011B000C91100087461736B5F737461727400000D
:1011C000FEE7FEE770470000BCB500F071F8124D75
:1011D0000220154C12A180220023CDE900050F4802
:1011E000A047281D042180220023CDE900100F48CC
:1011F0000FA1A04705F10800032180220023CDE9BB
:1012000000100D480DA1A047002000F029F9BDE80D
:10121000BC4000F06DB800BF2C010020C1110008D7
:101220007461736B5F310000FD170008C311000883
:101230007461736B5F320000C51100087461736BD9
:101240005F6C6F6700000000D0E9013201699A60AD
:10125000826853604B68834208BF4A600022026183
:1012600008680138086070474FF0400080F311882B
:10127000BFF36F8FBFF34F8FFEE700F1080100232C
:101280004FF0FF32C0E90031C0E90221016170472F
:1012900000210161704742684A6093688B609368DF
:1012A0005960916008610168013101607047000078
:1012B0004FF0400080F31188BFF36F8FBFF34F8F63
:1012C000154801684A1C0029026000D07047914807
:1012D000006810F0FF0FF9D04FF0400080F3118844
:1012E000BFF36F8FBFF34F8FFEE700BF04ED00E049
:1012F0000948016839B10139016018BF7047002001
:1013000080F3118870474FF0400080F31188BFF3DD
:101310006F8FBFF34F8FFEE71000002070B50446BB
:10132000B4B13A4EA4F10805B54212D342F2FF70AF
:10133000304485420DD854F8040C002812DB4FF0DD
:10134000400080F31188BFF36F8FBFF34F8FFEE72C
:1013500070BD4FF0400080F31188BFF36F8FBFF373
:101360004F8FFEE7296841B14FF0400080F31188AC
:10137000BFF36F8FBFF34F8FFEE720F000400828C8
:1013800044F8040C04D3A0F108012046FEF792FFB4
:1013900000F010F91E4854F8043C416800F11404B0
:1013A00022461944416011460A68AA42FBD3A14271
:1013B00006D0B14220D342F2FF742644B1421BD87A
:1013C0004E688C19AC4202BF33444B600D46EE1898
:1013D000964206D10668B2421FBF566833446B601E
:1013E0001268A9422A6018BF0D60016901310161CC
:1013F000BDE8704000F096BB4FF0400080F31188CC
:10140000BFF36F8FBFF34F8FFEE700BF3C04002098
:10141000800000200000000000000000000000002C
:10142000074B19680868B0E8F00F80F30988BFF32C
:101430006F8F4FF0000080F311884EF00D0E704753
:10144000B40100200448002101608160034941602B
:1014500007210160704700BF10E000E03F19010064
:10146000F8B50446FFF724FF0CB982480468251D2F
:101470002846FFF7E9FE70B9E06A7F4A00EB800179
:1014800052F8211039B9012101FA00F077490A68B0
:1014900022EA00000860A06A18B104F11800FFF702
:1014A000D3FE724E734F7068013070603968B06857
:1014B0008C420BD150B106F140002946FFF7EBFEFC
:1014C000F0680130F060FFF713FF09E03069013880
:1014D0003061FFF753FDFFF70BFF2046FFF722FDBA
:1014E000B06810B13868844200D0F8BD706940B16E
:1014F0004FF0400080F31188BFF36F8FBFF34F8F21
:10150000FEE7BD484FF080510160BFF34F8FBFF33E
:101510006F8FF8BD04ED00E02DE9F04387B04FF088
:101520000009DFF81487214C02AD00278DF80C90DC
:101530001D4808F12C0602900120002F0CDC2046EB
:10154000294680220023CDE9009600F057F90436A1
:1015500001370028F1D119E0411C1CD0012815D118
:101560004FF0400080F31188BFF36F8FBFF34F8FB0
:101570004FF0FF30C8F828000120C8F8080000200C
:10158000C8F81800FEF78CFF00F09CF808480068C7
:1015900007B0BDE8F0834FF0400080F31188BFF33F
:1015A0006F8FBFF34F8FFEE749444C45390F00085A
:1015B000601C00082D48416901314161704700BF3E
:1015C000B0B5FF4C606910B101206062B0BD002071
:1015D000606227480068A063A16BE06B814206D976
:1015E000A16B081AF74909688A6D10448865A06BD9
:1015F000F44DE0632868006B0168B1F1A53F0BD1A1
:101600004168B1F1A53F04BF8168B1F1A53F03D1A5
:10161000C068B0F1A53F04D0296828683431FFF7CD
:1016200023FE2068E849B0FA80F0C0B2C0F11F0084
:1016300000EB800051F820207AB101EB80021146C6
:1016400051F8040F40680B1D0860984204BFD06831
:101650000860C06828602868B0BD4FF0400080F383
:101660001188BFF36F8FBFF34F8FFEE7B0000020EC
:1016700068010020B4010020B80100200000000033
:10168000EFF30980BFF36F8F0D4B1A6820E9F00F5D
:1016900010602DE908404FF0400080F31188FFF7FB
:1016A0008FFF4FF0000080F31188BDE808401968F3
:1016B0000868B0E8F00F80F30988BFF36F8F7047B8
:1016C000B40100203C483D4B0168CA6A9A4208D0E8
:1016D0004FF0400080F31188BFF36F8FBFF34F8F3F
:1016E000FEE7896B364A914208D04FF0400080F304
:1016F0001188BFF36F8FBFF34F8FFEE7BFB5002197
:10170000029130490A788DF80F20FF220A700A787A
:101710008DF807209DF8072012F040032A4A137025
:1017200008D14FF0400080F31188BFF36F8FBFF3F3
:101730004F8FFEE79DF8073013F0400F0FD14FF0A9
:10174000400080F31188BFF36F8FBFF34F8FFEE728
:10175000013302939DF807305B008DF807309DF947
:101760000740029BB4F1FF3FF2DD082B4FF000036E
:101770004FF000051FBF029BC3F107034FF4E06465
:1017800004EA032353609DF80F200A70816941F435
:101790007F018161816941F07F4181614561FFF78E
:1017A00051FE0A480560FFF7D9FBFFF709FFFFF775
:1017B000F3FB002004B0B0BD08ED00E021140008E8
:1017C0008116000800E400E09C00002010000020CA
:1017D00080B54FF0400080F31188BFF36F8FBFF3E7
:1017E0004F8F00F0F9F818B17A484FF0805101603E
:1017F000002080F3118880BD04ED00E02DE9F84F52
:101800001646824699460D46B7003846FFF7DAFB82
:101810000446002C68D06420FFF7D4FB8346BBF15C
:10182000000F5ED058466421FEF744FD204639463D
:10183000A522CBF83040FEF735FDDBF83000002D57
:1018400000EB8600A0F1040020F007080DD00BF19A
:1018500034000021132905D86A5C42546A5C0131C6
:10186000002AF7D100208BF84700DDE90A64202E1A
:1018700040D20BF10405CBF82C60CBF85060284621
:10188000FFF706FD0BF11800FFF702FDC6F120007F
:10189000CBF810B051464A46CBF818004046CBF87A
:1018A00024B0FFF75FFC002CCBF8000001D0C4F897
:1018B00000B0FFF7FDFCE04FDFF88493386901309A
:1018C0003861D9F80000F0B1B86800283FD1D9F8E4
:1018D0000000DBF82C10C06A884298BFC9F800B03D
:1018E00035E02046FFF71AFD4FF0FF36304601B0D5
:1018F000BDE8F08F4FF0400080F31188BFF36F8F89
:10190000BFF34F8FFEE7C9F800B0386901281ED138
:10191000CA4C002603E0A019FFF7AFFC1436B6F559
:10192000207FF8D1DFF8A480294C4046A04708F179
:1019300014063046A04707F15400A04707F14000C5
:10194000A04707F16800A047C7F81C803E6278688E
:10195000012601307860CBF84800DBF82C003A68AB
:1019600006FA00F100EB800011433960B34901EB46
:1019700080025368CBF808309C68CBF80C409C6818
:1019800065609D60CBF8142051F82020013241F8A9
:101990002020FFF7ADFCB8680028A7D0D9F80000D8
:1019A000DBF82C10C06A884207D2A6484FF080515D
:1019B0000160BFF34F8FBFF36F8F012696E700BF23
:1019C000B0000020B4010020B80100204001002038
:1019D0007B12000804ED00E02DE9F84FDFF858B263
:1019E000DBF8140030B1DBF830000130CBF8300008
:1019F000002076E0DBF8180010F10108CBF8188021
:101A000072D0DBF82810002088455AD3DFF82C92DA
:101A1000DFF82CE24FF0010C4FF0000A47E0DBF852
:101A20001C20D268D268164656F8047FB84545D3C4
:101A3000D2E9023557699D60D5686B607B68B34217
:101A400008BF7D6050613B68013B3B60976A77B19E
:101A5000D2E907359D60156A6B6002F11803796859
:101A6000994208BF7D609062396801393960D16A56
:101A7000DBF800500CFA01F32B43CBF8003001EBFC
:101A8000810309EB83056F689760BC68D460BC680C
:101A90006660BE60556159F82320013249F8232061
:101AA000DEF80020D26A914288BF4FF0010ADBF8CD
:101AB0001C201268002AB2D14FF0FF375046CBF8F5
:101AC00028705F495D4A0968C96A01EB810152F8D3
:101AD0002110012988BF0120DBF82410002918BF3C
:101AE000012001B0BDE8F08FDBF81C00006840B1B8
:101AF0004FF0400080F31188BFF36F8FBFF34F8F1B
:101B0000FEE7DBF81C00DBF82010CBF81C10CBF84C
:101B10002000DBF834000130CBF83400FFF72EFA58
:101B20006FE700BF2DE9F843FFF7C2FB424D68693C
:101B300060B1686901386861686980B14FF0000977
:101B4000FFF7D6FB484601B0BDE8F0834FF04000F8
:101B500080F31188BFF36F8FBFF34F8FFEE72869C3
:101B60004FF000090028EBD0DFF8D0E0DFF8D0809C
:101B70004FF0010C00223EE02A6ED268D2E90767DE
:101B8000936AB760176A7E6002F118065868B0421F
:101B900008BF5F60C2F82890186801381860D2E961
:101BA000020357698360131DD66870607868984295
:101BB00008BF7E60386801383860D06A2E680CFA39
:101BC00000F737432F6000EB80070EEB8706746841
:101BD0009460A168D160A1684B60A36056615EF813
:101BE000271001314EF82710D8F80010C96A884232
:101BF00088BFC5F824C06B6D002BBDD10AB1FFF7BB
:101C0000BDF92C6B44B10127FFF7E6FE00B16F620E
:101C1000013CF9D100202863686A00288ED0D8F8EA
:101C200000004FF080514FF0010906480160BFF3FA
:101C30004F8FBFF36F8F83E7B0000020B801002003
:101C4000B401002004ED00E00000000000000000EE
:101C50000102030406070809000000000102030452
:101C60001F000000901C0008000000202000000061
:101C700028010008B01C00082000002020320000CD
:101C80004401000800000000000000000000000007
:101C900001000000100000000000000000127A00A7
:101CA000AAAAAAAA0000000000000000000000008C
:04000005080000ED02
:00000001FF
