:020000040800F2
:100000001032002021020008830E00080F0E0008A5
:10001000810E00087B0300089D120008000000000C
:10002000000000000000000000000000AF11000808
:100030007D03000800000000AB110008B3110008A8
:100040003B0200083B0200083B0200083B0200089C
:100050003B0200083B0200083B0200083B0200088C
:100060003B0200083B0200083B0200083B0200087C
:100070003B0200083B0200083B0200083B0200086C
:100080003B0200083B0200083B0200083B0200085C
:100090003B0200083B0200083B0200083B0200084C
:1000A0003B0200083B0200083B0200083B0200083C
:1000B0003B0200083B020008191200083B0200083E
:1000C0003B0200083B0200083B0200083B0200081C
:1000D0003B0200083B0200083B0200083B0200080C
:1000E0003B0200083B0200083B02000800F002F857
:1000F00000F03AF80AA090E8000C82448344AAF188
:100100000107DA4501D100F02FF8AFF2090EBAE885
:100110000F0013F0010F18BFFB1A43F0010318473B
:100120004C2600006C260000103A24BF78C878C125
:10013000FAD8520724BF30C830C144BF04680C60ED
:10014000704700000023002400250026103A28BF35
:1001500078C1FBD8520728BF30C148BF0B60704739
:100160001FB51FBD10B510BD00F0CEF81146FFF74A
:10017000F7FF01F0A5F800F0ECF803B4FFF7F2FF89
:1001800003BC00F0F3F80000224B19680868B0E8DF
:10019000F00F80F30988BFF36F8F4FF0000080F3FA
:1001A00011884EF00D0E70470000000006480068F0
:1001B000006880F3088862B661B6BFF34F8FBFF363
:1001C0006F8F00DF00BF00BF08ED00E0EFF3098094
:1001D000BFF36F8F0F4B1A6820E9F00F106008B55E
:1001E0004FF0400080F31188BFF34F8FBFF36F8F44
:1001F00001F046FD4FF0000080F31188BDE8084093
:1002000019680868B0E8F00F80F30988BFF36F8FB2
:10021000704700BF38000020EFF3058070470000F2
:100220000948804709480047FEE7FEE7FEE7FEE78A
:10023000FEE7FEE7FEE7FEE7FEE7FEE704480549C6
:10024000054A064B7047000015120008ED00000833
:10025000102C002010320020102E0020102E002024
:1002600002F0FF0343EA032242EA024200F002B82E
:100270004FF000020429C0F0128010F0030C00F0CF
:100280001B80CCF1040CBCF1020F18BF00F8012B4D
:10029000A8BF20F8022BA1EB0C0100F00DB85FEA1B
:1002A000C17C24BF00F8012B00F8012B48BF00F8E7
:1002B000012B70474FF0000200B513469446964656
:1002C000203922BFA0E80C50A0E80C50B1F1200169
:1002D000BFF4F7AF090728BFA0E80C5048BF0CC017
:1002E0005DF804EB890028BF40F8042B08BF704775
:1002F00048BF20F8022B11F0804F18BF00F8012BE7
:100300007047704770477047754600F02BF8AE464F
:1003100005006946534620F00700854618B020B511
:10032000FFF78CFFBDE820404FF000064FF00007BC
:100330004FF000084FF0000B21F00701AC46ACE88D
:10034000C009ACE8C009ACE8C009ACE8C0098D46FA
:10035000704710B50446AFF300802046BDE810405A
:10036000FFF70BBF00487047B02B00200149182051
:10037000ABBEFEE7260002007047FEE770470000B4
:100380002DE9F84FDFF8B8910024A9F1040B2346BA
:100390000F2709F1040AABF1040EC9E00125A540BD
:1003A0002A40AA427DD1674ED1F804C0ACEB0608C2
:1003B000B44532D014DCBCF1030F3AD009DCBCF1F7
:1003C000000F2AD0BCF1010F1CD0BCF1020F31D1BB
:1003D0001DE0BCF1110F17D0BCF1120F2AD119E0AA
:1003E000B8F5881F19D006DCB8F5803F15D0B8F5F0
:1003F000801F1FD111E0B8F5001F0ED0B8F5041F03
:1004000018D10AE0CB6815E0CB681B1D12E0CB6861
:1004100008330FE0CB680C330CE08B682BB1012B59
:100420004FF0080303D0456104E0042302E00561B6
:1004300000E00023FF2A01D8064601E000F104068F
:100440004FEA840501D9A5F12005D6F8008007FA06
:1004500005FC28EA0C0803FA05F548EA0508C6F881
:1004600000804D68ED0062D5374DAE6946F001065B
:10047000AE61AD6924F0030605F001050095334D2A
:1004800006EB050CDCF80850A607360F07FA06F84D
:1004900025EA0805DFF8B880404503D14FF0000891
:1004A00017E044E0DFF8AC80404502D14FF001088E
:1004B0000FE0DFF8A480404502D14FF0020808E0C9
:1004C000DFF89880404502D14FF0030801E04FF07B
:1004D000040808FA06F848EA0508CCF808804D68D0
:1004E000D9F80060ED024D4601D5164300E0964371
:1004F0002E604D68DAF80060AD02554601D516430E
:1005000000E096432E604D68DBF80060AD035D4669
:1005100001D5164300E096432E604D68DEF800607A
:10052000ED03754601D5164300E096432E60641C2A
:100530000D682A46E5407FF431AFBDE8F88F000032
:1005400008040140000011100010024000000140AA
:1005500000080140000C014000100140001401405F
:10056000C26821EA02030A4043EA0241016170477E
:100570000AB1016170470904FBE700000148806887
:100580007047000000000020024881680278114492
:100590008160704700000020074810B5016841F0F5
:1005A00010010160032000F0A1F80F2000F006F810
:1005B00000F050F8002010BD0020024030B5054684
:1005C0001F4887B0C16941F00401C161C06906A933
:1005D00000F00400009001A800F030F90498B0B1D8
:1005E00000F04CF940001749174AB0FBF1F11748E9
:1005F000491E0260416040F2E7320021C0E9032158
:100600008160816100F002FB040003D015E000F07E
:1006100035F9E8E70D4800F027FB04000DD11E2056
:1006200000F036F8102D07D2002229461E2000F0D7
:100630003DF80748056000E0012407B0204630BDC2
:100640000010024040420F000008004084000020DB
:10065000040000200C4808B5816941F00101816166
:10066000816901F001010091C16941F08051C161CE
:10067000C06900F0805000900448416821F0E061BA
:1006800041F00071416008BD0010024000000140CF
:10069000002809DB00F01F02012191404009800081
:1006A00000F1E020C0F8001170470000F0B40E4BDC
:1006B0001B680C46C3F30223C3F10705042D00D9C0
:1006C0000425191D072901D2002300E0DB1E0126A5
:1006D00006FA05F1491E214099409E40761E1640BB
:1006E0003143F0BC00F0DBBD0CED00E0064900F04A
:1006F000070208684FF6FF03184040EA0220034A49
:1007000010430860704700000CED00E00000FA059F
:100710002DE9F0470F46050061D0434E306800F0E8
:100720000700B84209D2306820F007003843306033
:10073000306800F00700B84251D128683B4C81076F
:1007400012D5400703D5606840F4E0606060287807
:10075000000703D5606840F4605060606068A96875
:1007600020F0F000084360602878C00728D068684F
:10077000012810D02168022810D0890700292EDA1C
:10078000616821F0030101436160FFF7F7FE8046D5
:1007900041F288390DE021688903EFE78901EDE72F
:1007A000FFF7ECFEA0EB0801494502D90320BDE8A4
:1007B000F0876068696800F00C00B0EB810FEFD142
:1007C000306800F00700B8420BD9306820F007000D
:1007D00038433060306800F00700B84201D0012093
:1007E000E5E72878400705D56068E96820F4E0600F
:1007F000084360602878000706D56068296920F4FE
:10080000605040EAC100606000F048F86168084A42
:10081000C1F30311515CC8400649086006480068EE
:10082000FFF7CCFE0020C2E700200240001002408B
:10083000E22000080C000020040000200F220260CB
:100840000C4A536803F003034360536803F0F0035A
:100850008360536803F4E063C36052684FF4E0635D
:1008600003EAD20202610448006800F00700086051
:100870007047000000100240002002400448054973
:1008800000684968044AC1F30221515CC8407047BE
:100890000C00002000100240F22000080E4A5168AF
:1008A0000E4801F00C03042B11D0082B0FD10C487B
:1008B000C1F38343C903C05C0AD55168084AC1F338
:1008C0004041921E515C054A5043B0FBF1F0704725
:1008D00004494843704700000010024000127A00AB
:1008E000D220000800093D002DE9F84F040070D027
:1008F0002078C04DC00749D06868C0F38100012846
:1009000007D06868C0F38100022809D16868C00375
:1009100006D52868800339D560680028E7D035E01F
:100920006068B0F5803F0BD010B1B0F5A02F11D0AA
:10093000286820F480302860286820F4802002E0B5
:10094000286840F480302860606890B1FFF716FE98
:1009500006460AE0286840F480202860F0E700BFDF
:10096000FFF70CFE801B642873D828688003F7D536
:100970000CE0FFF703FE064605E000BFFFF7FEFDB3
:10098000801B6428F0D828688003F7D420789A4E1A
:1009900080074FF001094FF0000839D5686810F062
:1009A0000C0F07D06868C0F38100022809D168687D
:1009B000C00306D42868800714D52069012808D10F
:1009C00010E02069B0B1C6F80090FFF7D7FD0746E8
:1009D00005E00AE1FFF7D2FDC01B0228C4D8286851
:1009E0008007F7D52868616920F0F80040EAC10067
:1009F00028600DE0C6F80080FFF7C0FD074604E060
:100A0000FFF7BCFDC01B022823D828688007F7D455
:100A1000207800072CD57948A169D9B1C0F8009099
:100A2000FFF7ACFD074604E0FFF7A8FDC01B022856
:100A30000FD8686A8007F7D571484FF4FA510068FB
:100A4000B0FBF1F0009000BF0098411E0091FAD277
:100A50000EE080E0C0F80080FFF790FD074604E05C
:100A6000FFF78CFDC01B022875D8686A8007F7D491
:100A70002078400760D5E8690027C00008D4E869FD
:100A800040F08050E861E869012700F08050009054
:100A90005C480168C90513D40168834641F480713C
:100AA0000160FFF76BFD824606E000BFFFF766FDC1
:100AB000A0EB0A0064284ED8DBF80000C005F5D58D
:100AC000E06801280AD008B1052813D0286A20F070
:100AD00001002862286A20F0040002E0286A40F041
:100AE00001002862E06841F2883B98B1FFF746FDBB
:100AF00082460BE0286A40F004002862EEE700BF5F
:100B0000FFF73CFDA0EB0A0159455AD8286A800737
:100B1000F6D50CE0FFF732FD824605E0FFF72EFD2B
:100B2000A0EB0A0159454CD8286A8007F6D41FB1BA
:100B3000E86920F08050E861E06988B36968C1F332
:100B40008101022944D00228C6F8608004D0FFF752
:100B500015FD044638E034E0FFF710FD074604E0D9
:100B6000FFF70CFDC01B02282BD828688001F7D4A2
:100B7000206AB0F5803F05D16868A16820F4003094
:100B800008436860D4E908010843696821F47411D6
:100B900008436860C6F86090FFF7F0FC044606E082
:100BA00025E000BFFFF7EAFC001B022809D82868EF
:100BB0008001F7D51BE000BFFFF7E0FC001B022817
:100BC00002D90320BDE8F88F28688001F4D40EE034
:100BD0000128F7D06868226A00F48031914204D17C
:100BE000616A00F47010884201D00120EAE7002019
:100BF000E8E7000000100240000042428004424248
:100C00000C000020007000407047704710B50400D1
:100C100003D094F83D0010B107E0012010BD002082
:100C200084F83C00204600F01EF8022084F83D00C5
:100C3000211D206800F0F6FA012084F8460084F8AF
:100C40003E0084F83F0084F8400084F8410084F8B6
:100C5000420084F8430084F8440084F8450084F896
:100C60003D00002010BD704790F83D10012901D0D3
:100C700001207047022180F83D100168CA6842F0E7
:100C80000102CA6000680B49884208D0B0F1804F69
:100C900005D00949884202D00849884204D18168B8
:100CA00001F00701062903D0016841F0010101604C
:100CB00000207047002C0140000400400008004064
:100CC00070472DE9F04104460068C66805694FF099
:100CD0000007A90713D5B10711D5F91E016101203D
:100CE0002077206880698007204602D0FFF7E8FF60
:100CF00004E000F07EF8204600F07CF827776807D3
:100D000016D5700714D521686FF004000861022021
:100D100020772068806910F4407F204602D0FFF7DA
:100D2000CFFF04E000F065F8204600F063F8277775
:100D3000280715D5300713D521686FF00800086122
:100D4000042020772068C0698007204602D0FFF782
:100D5000B7FF04E000F04DF8204600F04BF827778D
:100D6000E80616D5F00614D521686FF0100008616A
:100D7000082020772068C06910F4407F204602D008
:100D8000FFF79EFF04E000F034F8204600F032F850
:100D90002777E80708D0F00706D021686FF0010038
:100DA0000861204600F028F8280608D5300606D548
:100DB00021686FF0800008612046FFF725FF680674
:100DC00008D5700606D521686FF0400008612046FE
:100DD00000F01CF8A8060AD5B00608D521686FF007
:100DE000200008612046BDE8F041FFF70EBFBDE8D6
:100DF000F08170477047000000680349884201D1C4
:100E0000FFF7C2BB70470000000800407047FEE7D4
:100E100010B586B000200090019002900390164813
:100E2000816941F010018161816901F01001049133
:100E3000816941F020018161816901F02001049103
:100E4000816941F00401816180690C4C00F004006B
:100E5000049000220A212046FFF78AFB0A20009016
:100E600001200221CDE90101039169462046FFF7E7
:100E700087FA06B010BD00000010024000080140D3
:100E8000FEE7FEE710B500204FF47A720021491CFE
:100E90009142FCD3401C9042F8D300F06DF8AE2094
:100EA00000F0F4F8D52000F0F1F8802000F0EEF822
:100EB000A82000F0EBF83F2000F0E8F8D32000F085
:100EC000E5F8002000F0E2F8402000F0DFF8A12073
:100ED00000F0DCF8C82000F0D9F8DA2000F0D6F8ED
:100EE000122000F0D3F8812000F0D0F8CF2000F0DD
:100EF000CDF8D92000F0CAF8F12000F0C7F8DB20C7
:100F000000F0C4F8302000F0C1F8A42000F0BEF8D2
:100F1000A62000F0BBF88D2000F0B8F8142000F0F7
:100F2000B5F8AF2000F0B2F8BDE8104000F011B8FD
:100F300010B5B0300C46C0B200F0A8F8102040EA5E
:100F4000141000F0A3F804F00F00BDE8104000F00A
:100F50009DB870B5002400212046FFF7E9FF002569
:100F6000002000F0A4F86D1CEDB2802DF8D3641CB5
:100F7000E4B2082CEFD370BD114810B5816986B07A
:100F800041F00801816180690E4C00F00800049076
:100F9000112001904FF440700090032003906946A7
:100FA0002046FFF7EDF9012211022046FFF7E0FA93
:100FB000012251022046FFF7DBFA06B010BD000007
:100FC00000100240000C01402DE9F047144E0024AF
:100FD00007464FF080084FF40079B51528FA04F25F
:100FE0003A4049463046FFF7C3FA012229463046C7
:100FF000FFF7BEFA002229463046FFF7B9FA641C13
:10100000E4B2082CEAD3012229463046FFF7B0FAB1
:1010100029463046BDE8F0470022FFF7A9BA000094
:10102000000C014070B501220B4D540221462846A8
:10103000FFF79EFA0122160231462846FFF798FA7A
:10104000002221462846FFF793FA31462846BDE89C
:1010500070400022FFF78CBA000C014070B50A4DB9
:101060004FF40074002221462846FFF781FA01223E
:1010700011022846FFF77CFA21462846BDE8704059
:101080000122FFF775BA0000000C014010B50446BC
:10109000FFF7C8FF7820FFF797FF0020FFF794FFC6
:1010A0002046FFF791FFBDE81040FFF7D7BF10B50E
:1010B0000446FFF7B7FF7820FFF786FF4020FFF7D1
:1010C00083FF2046FFF780FFBDE81040FFF7C6BF53
:1010D0002DE9F0414000801EC5B2C8000838C7B2F3
:1010E000164639462846FFF723FF1148002400EB37
:1010F00006163019A0F5805090F8000EFFF7D7FFC4
:10110000641CE4B2082CF4D36D1CE8B23946FFF736
:101110000FFF00243019A0F5805090F8080EFFF75B
:10112000C6FF641CE4B2082CF4D3BDE8F0810000D3
:10113000FA2000082DE9F047814600251746884629
:101140000A2002E000EB800040008742FAD20A2623
:10115000B0FBF6F412E000BFB7FBF4F0B0FBF6F121
:1011600006FB11003030C2B208EB0500C1B24846A0
:10117000FFF7AEFFB4FBF6F46D1CEDB2002CEBD123
:10118000BDE8F0872DE9F04115460E4607460024DC
:1011900006E03019C1B23846FFF79AFF641CE4B28A
:1011A0002A5D002AF5D1BDE8F081FFF70FB8FEF700
:1011B000EBBF00F005BE30B58FB028216846FFF7C1
:1011C00079F814210AA8FFF775F801210804CDE980
:1011D00000100024029402250491CDE907504FF439
:1011E000E01009906846FFF77FFB08B172B6FEE792
:1011F0000F20CDE90A054FF48060CDE90C400221B3
:101200000AA80E94FFF784FA002801D072B6FEE710
:101210000FB030BD704700000148FFF752BD00001D
:1012200084000020F0B50268194B1A4C1A4D4FF09B
:101230008047984205D0B84203D0A04201D0A842CE
:1012400003D122F070064A683243984205D0B84272
:1012500003D0A04201D0A84203D122F44074CA684E
:1012600022434C6922F08002224302608A68C262F3
:101270000A688262984201D10969016301214161D2
:101280000169C90703D0016921F001010161F0BDC5
:10129000002C01400004004000080040FEE7090760
:1012A000090E002804DB00F1E02080F800147047EC
:1012B00000F00F0000F1E02080F8141D70470000DE
:1012C0001CB5FFF769F9FFF776FFFFF7A1FDFFF700
:1012D000D9FD08490120CDE900010023802206A1A3
:1012E000084800F083FD012800D0FEE700F080FCF4
:1012F000FEE70000780000207461736B5F73746117
:1013000072740000891800082DE9F047204C0F4640
:101310000546E668D4F83490D4F838802068001D7B
:1013200000F0FCFA38B9206890F82C1001208840B1
:10133000216981432161681C15D1A7B11549226833
:101340004868906023688268DA6022688368121DAA
:101350005A602268121D8260206841610868401C42
:101360000860BDE8F08720683544B54245602168D3
:1013700005D24046BDE8F047091D00F007BB4846CE
:10138000091D00F003FBA06A8542EAD2A562E8E7E6
:10139000380000209C2B00202DE9F041054600F08C
:1013A00019FB354CA068401CA0602068334F10B179
:1013B000606930B32BE02560A068012827D10026A2
:1013C00006EB860007EB800000F0D2FA761C202E98
:1013D000F6D32B4800F0CCFA2948143000F0C8FAB4
:1013E0002748283000F0C4FA25483C3000F0C0FA05
:1013F0002348503000F0BCFA214860631430A063E9
:1014000005E02068E96AC06A884200D82560606A01
:101410000121401C6062E86A226981401143216118
:1014200000EB800007EB80004068A8608168E960FD
:101430008268291D51608160E86A00EB800007EB3B
:101440008001696157F82010491C47F8201000F00E
:10145000E1FA606900280CD02068E96AC06A884215
:1014600007D208494FF080500860BFF34F8FBFF399
:101470006F8FBDE8F081000038000020CC280020EC
:101480004C2B002004ED00E070B50C4C0C4E11E02C
:1014900000F0A0FAF068C568281D00F03FFAA068C7
:1014A000401EA0606068401E606000F0B3FA2846ED
:1014B00000F008F860680028EAD170BD380000200C
:1014C000882B002010B50446006B00F0B7FA2046C8
:1014D000BDE8104000F0B2BA0E484FF42051420768
:1014E00006D0C01D0B4920F00700411AC1F520515C
:1014F000094A00230144C2E900030839143A21F0E3
:10150000070111604B600B600B1AC0E90013936078
:1015100053607047CC00002024000020074C4FF09F
:101520008056074DFFF7B0FF20680128FAD92E60DA
:10153000BFF34F8FBFF36F8FF4E70000CC2800207C
:1015400004ED00E02DE9F0470D46DDE9098417467A
:10155000824691009946089EA522206BFEF780FEE8
:101560006FF00301206B01EB8701084420F00707AF
:10157000780707D0402080F31188BFF34F8FBFF367
:101580006F8FFEE765B100202218295C82F83410C5
:10159000295C11B1401C1428F6D3002084F84700C0
:1015A000202E07D3402080F31188BFF34F8FBFF365
:1015B0006F8FFEE7E662201DA66400F0E4F904F1F7
:1015C000180000F0E0F92461C6F120006462A06117
:1015D0004A465146384600F009F92060B8F1000F3C
:1015E00001D0C8F80040BDE8F087000030B51A49C6
:1015F00000E011460A688242FBD3174B99420DD096
:10160000164B994202D3164B994207D9402080F3DA
:101610001188BFF34F8FBFF36F8FFEE74B685C18E5
:10162000844203D1406818444860084643681C1847
:10163000944209D1084C143C2468A24209D0526853
:101640001A4442600A6812680260814200D0086051
:1016500030BD0460F9E7000024000020CC00002029
:10166000CB2800200548416B096821B1416BC9684E
:101670000968816270474FF0FF31FAE738000020B7
:1016800008484068401C4FF0400080F3118804D0A7
:10169000BFF34F8FBFF36F8FFEE7BFF34F8FBFF3E3
:1016A0006F8FFEE72C0000202DE9F04104004FF081
:1016B00000060FD014F1090F0BD80834600709D0C9
:1016C00004F00700C0F10800C1438C4201D8044473
:1016D00000E0002400F0CCFA414D286808B9FFF77B
:1016E000FBFE002C6DDD6F68BC426AD83C483D4A69
:1016F000143001460968914202D33B4B994215D9F7
:10170000402080F31188BFF34F8FBFF36F8FFEE748
:1017100008466146944501D3994207D9402080F399
:101720001188BFF34F8FBFF36F8FFEE7D1F804C06E
:10173000A44504D2D1F800C0BCF1000FE8D1D5F81F
:1017400000C061453DD006680836964201D39E42EE
:1017500007D9402080F31188BFF34F8FBFF36F8FFD
:10176000FEE70A6802604A68A24207D2402080F37E
:101770001188BFF34F8FBFF36F8FFEE7131B102B42
:1017800010D90A195FEA427C07D0402080F3118803
:10179000BFF34F8FBFF36F8FFEE753604C6003685A
:1017A000136002604A68B81A6860AB68984200D259
:1017B000A86042F00040486000200860E868401CD3
:1017C000E86000F0DFFB700707D0402080F311884D
:1017D000BFF34F8FBFF36F8FFEE73046BDE8F08158
:1017E00010000020CC000020CB28002010B5031FE3
:1017F0004FF080741C601B1F21F001011960191F3C
:10180000024B0B60143940380A6010BD8116000885
:101810000C48006800F094F80B4D04464FF47A76BB
:1018200001220A210220FFF785FC2246092103201C
:10183000FFF780FC02212846FEF792FE304600F0BA
:1018400053F9EDE77C000020000801400C48406897
:1018500000F076F80B4D04464FF4FA7602220A2186
:101860001046FFF767FC224609210320FFF762FCC0
:1018700008212846FEF774FE304600F035F9EDE702
:101880007C000020000801401CB5012115A208467B
:10189000FFF778FC15A201210220FFF773FC16A2C6
:1018A00001210320FFF76EFC00F094F81449022098
:1018B000CDE900010023802212A1144800F096FA1D
:1018C0000F490320091DCDE900010023802210A14A
:1018D000114800F08BFA002000F02CF9BDE81C4004
:1018E00000F098B84D6F4C4C2100000072756E6E80
:1018F000696E673A000000006D696E6D656D3A00B3
:101900007C0000207461736B310000001118000826
:101910007461736B320000004D180008D0E9013289
:1019200001699A60D0E901235A604A68824201D174
:1019300082684A60002202610868401E08607047A1
:1019400008B9064800680021006B02E0491C89B212
:10195000401C0278A52AF9D088087047380000207A
:10196000402080F31188BFF34F8FBFF36F8FFEE7E6
:1019700000F108014FF0FF32C0E90112C1600161BE
:1019800000210160704700210161704730B50B688C
:101990005A1C02D000F1080202E0026904E022466B
:1019A000546825689D42FAD953684B6099608A60F3
:1019B000516008610168491C016030BD42684A609D
:1019C00093688B6093685960916008610168491C55
:1019D00001607047402080F31188BFF34F8FBFF341
:1019E0006F8F0A494868401C486001280CD108489C
:1019F000006810F0FF0F07D0402080F31188BFF37C
:101A00004F8FBFF36F8FFEE7704700002C00002060
:101A100004ED00E00849486828B1401E486001D143
:101A200080F311887047402080F31188BFF34F8FF7
:101A3000BFF36F8FFEE700002C00002070B5002878
:101A40003FD008381F490446884202D31E498C42C1
:101A500007D9402080F31188BFF34F8FBFF36F8FFA
:101A6000FEE76168002907DB402080F31188BFF39F
:101A70004F8FBFF36F8FFEE722683AB1402080F3AB
:101A80001188BFF34F8FBFF36F8FFEE721F0004146
:101A90006160082904D304F108000839FEF7E8FB67
:101AA00000F0E6F8094D60686968084468602046FF
:101AB000FFF79CFD2869401C2861BDE8704000F0DC
:101AC00061BA70BDCC000020CB280020100000209F
:101AD0004FF0E0200021016181610249416107214D
:101AE000016170473F19010010B5020015D000F0E8
:101AF000BFF80E48006B012807D0402080F3118802
:101B0000BFF34F8FBFF36F8FFEE700211046FFF743
:101B1000FBFB00F037FA002807D105494FF0805051
:101B20000860BFF34F8FBFF36F8F10BD38000020E8
:101B300004ED00E070B50546FFF74CFF284C05B9F1
:101B40002568281DFFF7EAFE58B9E86A254A00EB28
:101B5000800152F8211021B9012181402069884378
:101B60002061A86A18B105F11800FFF7D7FE606A76
:101B7000401C60622068854201D1012000E0002005
:101B8000616951B148B1291D1748FFF717FF606817
:101B9000401C6060FFF73EFF09E0A068401EA060A7
:101BA000FFF760FDFFF736FF2846FFF78BFC606903
:101BB000002814D02068854211D1206B38B1402014
:101BC00080F31188BFF34F8FBFF36F8FFEE7074994
:101BD0004FF080500860BFF34F8FBFF36F8F70BD21
:101BE00038000020CC280020882B002004ED00E0E5
:101BF00030B587B0002002AA19A1095C115411B1B7
:101C0000401C1428F8DB19490025CDE9005116487D
:101C10002B46802202A900F0E9F8144C3C3C98B114
:101C2000012802D0401C12D00EE0402080F3118821
:101C3000BFF34F8FBFF36F8F4FF0FF30A0620120D3
:101C40006061E56000F062F8E06A07B030BD4020F6
:101C500080F31188BFF34F8FBFF36F8FFEE7000053
:101C600049444C45000000001D1500087400002088
:101C70000248016B491C01637047000038000020D6
:101C800010B5204C216B04F11C0011B10121016041
:101C900010BD0021016020684FF0A531006B026883
:101CA0008A4208D142688A4205D182688A4202D1BA
:101CB000C068884204D0216820683431FFF750FEA4
:101CC00020691149B0FA80F0C0F11F0000EB8000DC
:101CD00051F8202072B101EB800000F10802416848
:101CE00049684160914201D1C1684160C868206083
:101CF000206810BD402080F31188BFF34F8FBFF3E1
:101D00006F8FFEE738000020CC2800203EB5294820
:101D10000025019501788DF80810FF2101700178E8
:101D20008DF800109DF80010234C11F04001217037
:101D30000CD09DF80010C943490616D5402080F309
:101D40001188BFF34F8FBFF36F8FFEE7402080F302
:101D50001188BFF34F8FBFF36F8FFEE7491C0191CE
:101D60009DF8001049008DF800109DF8001009063C
:101D70000199F3D408291AD0C1F10701A160217A91
:101D8000090201F4E061A1609DF8081001700B48A0
:101D9000016841F47F010160016841F07F41016009
:101DA000FFF796FE6560FEF701FA00203EBDA560D4
:101DB000E5E7000000E400E02C00002020ED00E05A
:101DC00010B5402080F31188BFF34F8FBFF36F8FA2
:101DD00000F03AF818B104494FF080500860002034
:101DE00080F3118810BD000004ED00E02DE9FF5FD5
:101DF0008346DDE90E878A46164699469000FFF72E
:101E000053FC05001DD05820FFF74EFC040015D0F0
:101E10005821FEF74FFA25630021CDE90241CDE9B3
:101E200000874B46324651465846FFF78BFB20460B
:101E3000FFF7B2FA012004B0BDE8F09F2846FFF793
:101E4000FDFD4FF0FF30F6E72DE9F0414B4C002649
:101E5000206B28B1A069401CA0613046BDE8F0812C
:101E6000E5686D1CE56013D1606B006838B14020F7
:101E700080F31188BFF34F8FBFF36F8FFEE7606B66
:101E8000A16B6163A063206A401C2062FFF7EAFB3C
:101E9000A16A3B488D420FD34FF0000E616B096879
:101EA00039B1616BC968C9684A68954214D2A262A7
:101EB00002E04FF0FF31A1622168C96A01EB8101A4
:101EC00050F82100012800D901262C481C30006858
:101ED0000028C2D00126C0E7D1E902724B69BA607E
:101EE000D1E902277A605F680A1D974201D1CF6865
:101EF0005F60C1F814E01F687F1E1F60D1F828C022
:101F0000BCF1000F15D0D1E907379F60D1E9073741
:101F10007B60DCF8047001F118039F4202D10B6A68
:101F2000CCF80430C1F828E0DCF800305B1ECCF8B7
:101F30000030CB6A0127D4F810C09F4047EA0C0755
:101F4000276103EB830300EB83035B688B609F686F
:101F5000CF609F687A609A60CA6A02EB820200EBE7
:101F600082034B6150F822305B1C40F82230C96A72
:101F70002268D26A914291D901268FE73800002069
:101F8000CC2800202DE9F0470024A046FFF722FDD1
:101F90004B4D0026286B28B1286B401E2863286B08
:101FA00040B188E0402080F31188BFF34F8FBFF32A
:101FB0006F8FFEE7A868424F424A4FF0000A4FF089
:101FC00001091C37F0BB76E0D068C468D4E907315A
:101FD000A06A9960D4E907135960436804F11801B5
:101FE0008B4201D1216A4160C4F828A001685346A0
:101FF000491E0160D4E902C06169CCF80800D4E947
:10200000020CCCF80400D1F804C0201D844503D193
:10201000D4F80CC0C1F804C063610B685B1E0B6090
:10202000E16AD5F810C009FA01F343EA0C032B6109
:10203000254B01EB810103EB81014968A160D1F8D7
:1020400008C000E018E0C4F80CC0D1F808C0CCF813
:1020500004008860E06A00EB800003EB80016161AE
:1020600053F82010491C43F82010E06A2968C96A17
:10207000884201D947F8269010680028A4D10CB1F5
:10208000FFF7F0FAAC6944B1FFF7DEFE08B147F89C
:102090002690641EF8D1C5F818A057F8260050B154
:1020A00028684FF0010809494FF080500860BFF3DD
:1020B0004F8FBFF36F8FFFF7ADFC4046BDE8F08751
:1020C00038000020742B0020CC28002004ED00E014
:1020D000010202030405060708090A0B0C0D0E0F86
:1020E00010100000000000000000010203040607B9
:1020F00008090000000001020304000000000000C5
:1021000000000000000000000000000000FC0000D3
:102110000000000000190000000000080601080689
:10212000010000000000000000000020E03C20E072
:102130003C0000021F02021F020000384444FE84DB
:102140001800000C10107F100F00788478C0308CBD
:102150000000001806010F100F0000F88444B8803A
:1021600080000F1011160C13100800090700000062
:1021700000000000000000000000000000F00C0261
:102180000100000000030C1020000001020CF00010
:1021900000000020100C030000002020C0F8C02028
:1021A0002000010100070001010000808080F08014
:1021B0008080000000000700000000000000000018
:1021C000000000483800000000000080808080800F
:1021D000800000000000000000000000000000007F
:1021E0000000001818000000000000000080601CC3
:1021F000020000300C030000000000F00804040896
:10220000F000000708101008070000000808FC0094
:102210000000000010101F10100000380404048497
:102220007800001814121110180000180484844457
:102230003800000C101010110E000000C02018FC17
:10224000000000030212121F121200FC44444484D6
:102250000400000C10101008070000F088444448E7
:1022600080000007081010100F00000C0404C43494
:102270000C000000001F000000000038448484446B
:102280003800000E111010110E0000F8040404882C
:10229000F000000009111108070000000060600054
:1022A00000000000001818000000000000400000BE
:1022B00000000000007000000000008040201008B6
:1022C000040000000102040810000020202020204B
:1022D000200000010101010101000004081020405C
:1022E0008000001008040201000000382404844427
:1022F0003800000000181B000000E018E414F40887
:10230000F000030C131417140B000000E01C708085
:102310000000101E110101131C1004FC444444B8B9
:102320000000101F101010080700E0180404040437
:102330001C00030C10101008040004FC0404040822
:10234000F000101F10101008070004FC4444F404AF
:102350000800101F101011100C0004FC4444F40479
:102360000800101F100001000000E0180404041C05
:102370000000030C1010110F010004FC8480808405
:10238000FC04101F100000101F10000404FC0404C3
:1023900000000010101F1010000000000404FC04D6
:1023A0000400604040403F00000004FC44E0140C86
:1023B0000400101F1000131C100004FC0400000097
:1023C0000000101F10101010180004FCFC00FCFC92
:1023D0000400101F001F001F100004FC1860800480
:1023E000FC04101F1000030C1F00F0080404040874
:1023F000F000070810101008070004FC848484848F
:102400007800101F100000000000F0080404040809
:10241000F000070814141828270004FC4444C4449E
:102420003800101F1000010618100038448484047E
:102430001C00001C101010110E000C0404FC0404FD
:102440000C000000101F1000000004FC0400000439
:10245000FC04000F101010100F00043CC40000E436
:102460001C040000031C0700000004FC00FC00FC2E
:10247000040000011F001F010000040C34C0C03420
:102480000C041018160101161810041C6480641C3A
:1024900004000000101F1000000008040484641CE5
:1024A0000400101C131010100C00000000FF0101AC
:1024B00001000000003F2020200000021CE000007E
:1024C000000000000000031C600000010101FF008B
:1024D0000000002020203F00000000000201010257
:1024E00000000000000000000000000000000000EC
:1024F00000004040404040404040000101020000D8
:10250000000000000000000000000080404040800B
:102510000000000C1212091F100008F880404080D3
:102520000000001F08101008070000008040404015
:10253000800000070810101008000080404040484C
:10254000F800000F101010081F100080404040409D
:102550008000000F121212120B00004040F0484899
:1025600010000010101F101000000080404040C0FC
:10257000400000354A4A4A49300008F8804040404F
:102580008000101F100000101F1000404CCC0000F5
:1025900000000010101F10100000000000404CCC84
:1025A000000000604040403F000008F80000C040CC
:1025B0004000101F120314181000000808FC00004F
:1025C00000000010101F1010000040C04040C0402C
:1025D0004080101F10001F10001F40C0804040406E
:1025E0008000101F100000101F100080404040406D
:1025F0008000000F101010100F0040C0804040807D
:102600000000407F48101008070000008040408014
:10261000C0000007081010487F404040C080404084
:10262000C00010101F10100000000080404040400B
:10263000C0000019121212120C00004040F040407D
:1026400000000000000F1010080040C00000004013
:10265000C000000F101010081F1040C0400040C004
:1026600040000001061806010000C0400040C00004
:1026700040C000071806031C03000040C04000C013
:102680004000001018071718100040C0400000401C
:10269000C0400040433C0C03000000C0404040C02C
:1026A0004000001018161110180000000000807E75
:1026B000010100000000001F202000000000FF00BA
:1026C0000000800000003F00000001017E8000004B
:1026D000000020201F000000000000010001010296
:1026E000010000000000000000000404C4445F4436
:1026F00044F4444F54644446040080403F0040404A
:102700002020130C18244380E000088849EE5888E4
:1027100000F88888FF8888FC0800010000FF00009E
:10272000001F0808FF08081F00000000FC40404090
:1027300040FF40404040FC00000000FE4040404060
:10274000407F4040404040FE00000000007E2222CA
:10275000A2222222227F0280000000FF414141414B
:10276000FF01FF41414141FF010000008C270008AB
:102770000000002084000000280100081028000844
:10278000840000208C31000044010008010000009A
:10279000100000000000000000127A00000000009D
:1027A0000000000000000000000000000000000029
:1027B000000000000000000000000000AAAAAAAA71
:1027C0000000000000000000000000000000000009
:1027D00000000000000000000000000000000000F9
:1027E00000000000000000000000000000000000E9
:1027F0001F000000000000000000000000000000BA
:1028000000000000000000000000000000000000C8
:04000005080000ED02
:00000001FF
